:020000040000fa
:080000000001040000000000f3
:020000040000fa
:1000080090010000900100009001000090010000a4
:100018009001000090010000900100009001000094
:100028009001000090010000900100009001000084
:10003800900100009001000090010000de3e0000e9
:1000480090010000900100009001000006430000ac
:100058009001000076390000900100009001000036
:100068009001000090010000900100009001000044
:100078009001000090010000900100009001000034
:100088009001000090010000900100009001000024
:100098009001000090010000900100009001000014
:1000a8009001000090010000900100009001000004
:1000b80090010000900100009001000090010000f4
:1000c80090010000900100009001000090010000e4
:1000d80090010000900100009001000090010000d4
:1000e80090010000900100009001000090010000c4
:0800f8009001000090010000de
:020000040000fa
:1001080090010000900100009001000090010000a3
:100118009001000090010000900100009001000093
:100128009001000090010000900100009001000083
:10013800900100009001000090010000de3e0000e8
:1001480090010000900100009001000006430000ab
:100158009001000076390000900100009001000035
:100168009001000090010000900100009001000043
:100178009001000090010000900100009001000033
:100188009001000090010000900100009001000023
:100198009001000090010000900100009001000013
:1001a8009001000090010000900100009001000003
:1001b80090010000900100009001000090010000f3
:1001c80090010000900100009001000090010000e3
:1001d80090010000900100009001000090010000d3
:1001e80090010000900100009001000090010000c3
:0801f8009001000090010000dd
:020000040000fa
:100200008fbd20000e7f22000e018800000000003c
:100210000c000700203c2400010020001100070012
:10022000000020000000e000020032000000020098
:100230000000000026430200000000000040da0039
:100240000000fe004440a900000020000000e00083
:100250000300320000002000a00188004440a800f4
:100260000000060091018800800078000000eb008b
:1002700015003700e280400032a0b4009101ba00be
:10028000e280400032a0b4009102ba00e280400057
:1002900032a0b4000002eb00472bde00f507b200ed
:1002a000602ce10004003a000059eb008301e900f2
:1002b000fdff3e00040037006128e100010032002c
:1002c0000082eb00040007001101ba000200e00008
:1002d000e8ff3a00000006003159ba008301e90046
:1002e0000c0032002159ba008301e90008003200f5
:1002f0000400e00003003a00e280400032a0b400b5
:10030000f5ff370011d9ba008301e900faff3a007e
:100310008100e800e180400032a0b4000000060047
:100320000040da000000fe008560a900670160005f
:100330004c11dd00c3048000f1ff280081806100c2
:1003400082807000c104880068006000c300de0085
:10035000e1806000cb08dd006004800000b0a100f7
:10036000010070006004880000000600431588004a
:100370005415880022158800111588000015880082
:1003800062006000011580000110a10080807000f3
:10039000011588000000060007e2a9008da0a90051
:1003a0008dc0a90085a0a90085c0a9000000060095
:1003b00085a0a90085c0a900670160004411dd0087
:1003c000d3048000f1f82f008180610082807000ea
:1003d000d1048800000178000207b2004411dd005a
:1003e000d3048000f18f2f00818061008280700033
:1003f000d1048800680160004311de0061016100e2
:100400004d11dd006104800001d0a10082807000e8
:10041000610488000008b2004700de00610060004f
:100420004e00dd006104800001e0a10080807000ca
:1004300061048800000006000200240031108000e2
:10044000e1806000fdff3a00301080006400600031
:10045000810f5000f9ff3a0031108000e880600001
:10046000808f5000f5ff3a0030108000700060006f
:10047000810f5000f1ff3a0041108000828060003f
:10048000808f5000edff3a0000000600881f7800c2
:100490000080fb0010108800411080000108b200ad
:1004a00000c0eb000b003a00000024004810800060
:1004b00000046400fdff3a00dfff070041108000e8
:1004c0000000280000806000880f5000010032000a
:1004d000e0cfb3004f04780000000600881f7800ca
:1004e0000004780007003700e8ff0700e14f4000f4
:1004f000090032004010800061006000fdff3a00fa
:10050000cdff070038407800e04f5000f6ff3a007a
:100510000000eb0001003700d0ff2f004f047800ef
:10052000000006002110880030108800000006003e
:100530004010800062006000fdff320008c2a90088
:1005400000108000000006000602a800000006005f
:100550000642a800000006008c20a90080ff2f00a2
:100560004221b6008420a900000006008c80a9006a
:1005700080ff2f004621b6008480a90000000600fd
:100580008f80a90080ff2f004a21b6008780a90034
:10059000000006008fa0a90080ff2f004e21b600aa
:1005a00087a0a900000006008fc0a90080ff2f00cf
:1005b0005221b60087c0a900000006008fe0a90004
:1005c00080ff2f005621b60087e0a900000006003a
:1005d0008e20a90080ff2f005a21b6008620a90096
:1005e000000006008e40a90080ff2f005e21b600ab
:1005f0008640a900000006008c40a90080ff2f0063
:100600008421b6008440a900000006008ca0a90047
:1006100080ff2f008a21b60084a0a90000000600f8
:100620008e60a90080ff2f009021b6008660a9008f
:10063000000006008e80a90080ff2f009621b600e2
:100640008680a900000006009000a90080ff2f000e
:100650009c21b6008800a900000006009020a90097
:1006600080ff2f00a221b6008820a900000006000c
:100670009040a90080ff2f00a821b6008840a90063
:10068000000006009060a90080ff2f00ae21b60098
:100690008860a9000000060088e0a9008960a90020
:1006a000e7016000cc19dd0032058000f1ff280071
:1006b000010161000301710032058800000178002a
:1006c0000207b2004811dd0043058000818061000f
:1006d0008280700041058800680160004311de00df
:1006e000610161004711dd00810480000170a100fb
:1006f0008280700081048800000178000208b20046
:100700004711de00610161004b11dd0081048000b2
:1007100001b0a10082807000810488008980a90056
:100720004801de00670161005305800081ff2f0052
:100730008180610082807000510588004b00de00de
:10074000610060004c00dd008104800001c0a10058
:10075000808070008104880000000600200e880060
:10076000310e8800430e8800540e8800020e880067
:100770000000060061016100530e80000300a1002b
:1007800082817100530e88000000e90000004000e3
:10079000621d200001317800000006008ce0a900f5
:1007a00013e1a90084e0a900000006008460a9000c
:1007b000670160004c11dd00a3048000f1ff2800f8
:1007c0008180610082807000a10488006800600060
:1007d000610480000130a100808070006104880005
:1007e0000000060084c0a900670160004811dd0018
:1007f000b3048000f18f2f0081806100828070003f
:10080000b104880068006000c300de00e180600081
:10081000c608dd00600480000060a10001007000d7
:10082000600488000000060084e0a9006701600001
:100830004c11dd00b3048000f1ff280081806100cd
:1008400082807000b104880068006000c300de0090
:10085000e1806000c708dd00600480000070a10036
:1008600001007000600488000000060086a0a90056
:10087000670160004411dd00f3048000f1f82f00ef
:100880008180610082807000f1048800680060004f
:10089000c300de00e1806000c508dd007004800058
:1008a0000050a100010070007004880000000600e4
:1008b0000021ef00110888002008880000000600d1
:1008c0000621ef0061088800800888001061a900f7
:1008d000000006000a21ef007108880090088800d7
:1008e000000006001421ef00d1088800f0088800fd
:1008f0001e61a9000000060000088000000006003c
:100900003008800000000600a008800000000600fb
:10091000000888000000060030088800000006007b
:100920005008880000000600a008880000000600ab
:1009300003f0a200889fbe008a9fbe008c1f780033
:100940002b010700320133006450e1004f003200f8
:100950006420e1005200320003826c0007003b007b
:100960000905d0000306d000820f54000c065d007c
:100970000200390002003200890178000306780085
:100980008582550004003d000003fd008103fd0049
:100990008502ea008b854200840f720002003b0052
:1009a00060001000e08018006011b8000005eb0046
:1009b0007a28e1000a00390006007800c75ddd00f2
:1009c000f707b200878075002d0037008281710023
:1009d0000a017800610560008180d1000080d300a9
:1009e0008502e900f9ff3b000604400087844800c7
:1009f00002003b0060041400e0841c000988a3008e
:100a0000070032008a8171008281710061016400f7
:100a10008904d1000884d3008b05e8001700370053
:100a20000978a30013003a000b00e0001300340023
:100a30008b05e9000804440089844c000a447400d2
:100a40000978a3000d003a000b00e0000700340015
:100a50008b05e9000804440089844c0001003a0039
:100a60000b0020000978a300f7ff32000001eb0023
:100a700002003700828171000a017800a10007009e
:100a80000cf0a70001f0a000ea0037006420e100ac
:100a900002003a00838f6c00ea0033000801be00b8
:100aa0000200be00e30037000081eb001c013700ac
:100ab000889fbe008a9fbe008c1f7800cc00070074
:100ac000d300330003866c006450e1002e00320036
:100ad0006420e100330032006150e1002f00320059
:100ae0006120e1003100320085855500eb07b00040
:100af0000900200008042000050037000804440015
:100b000089844c000a0031000603430087834b00b0
:100b10000001530081815b00f8ff33000203be0037
:100b20000800a0000804440089844c00f6ff390046
:100b3000c639dd008301730001003200130020007c
:100b40008904d1000884d3000998a300050032006d
:100b50000800a7000300a0008904d1000884d30086
:100b60008b05e8008904d1000884d3000001eb0064
:100b70000281d2006300070001f0a1000cf0a70081
:100b800001f0a000ab0037006420e100ad003200ae
:100b90000801be000200be00f7ff37006120e1003f
:100ba000a80032006000b800f3ff3700000020000a
:100bb00001f82700f0ff3700140020004101370042
:100bc000f4ff2f003f0137000001be007300070053
:100bd0000470a70003f0a1006509b10016003200ff
:100be0000d0035006828e10006003500f0ff2f00f9
:100bf000f1ff27000300e00013003b000100280084
:100c00000000050000004000818048008502e900e6
:100c1000fcff3a0008003700f88f420002003c0059
:100c20008000eb00000005008100d1000080d300af
:100c30008502e800fcff3a000300e00002003b00f0
:100c400060001000e080180000000600881f780097
:100c5000010478000100e00005003d006000100084
:100c6000e080180002003b0001f02c000300370078
:100c70000400070008f0a70001f0a0004f0478006e
:100c800000000600889fbe008a9fbe000105780014
:100c90000000e000180032000004be006011b8003f
:100ca0006b0920000982cf00020039000882cf00c2
:100cb0000441b000694252000e00320008003b00bf
:100cc00082817100610164008904d1000884d3002d
:100cd0008b05e8000442e800f9ff3a000500370000
:100ce0000804440089844c008b05e9000442e900b3
:100cf000fbff3a00030007004f05be004f04be0093
:100d00000000060081002000618055000b003d00be
:100d10000b00200061fe2f000100e1001d003400e7
:100d200082817100610164008904d1000884d300cc
:100d30000000e800faff3a00710020006100640042
:100d400003007000020060000900320061044400ea
:100d5000e0844c000988a500050032008b05e800fe
:100d60006808e10002003a008904d1000884d30039
:100d7000f20f20000258e10005003d00c75ddd00d4
:100d8000f907b200898075000800780000000600ad
:100d90000bf827008b00780000000500c70ade0072
:100da000f107b200f50fb20008003200e1cf4200b7
:100db000020032000170a00024000500810f7000c5
:100dc000010032000408050044000500810f700096
:100dd00002003a00140005008502e900000040000e
:100de00081c04800fcff3b000170a000240005000a
:100df0000004be00e9ff07000003be000405be00ba
:100e00000200be00e5ff0700844f750000000600e9
:100e10000200be006450e100050036006420e100dd
:100e2000020036000968a30001003a000800be0075
:100e30000160a0004f0678004f05be004f04be00c1
:100e400000000600f0ff2f00f1ff2700f9ff370038
:100e5000889fbe008a9fbe008c1f7800e4ff0700b9
:100e6000ebff330003866c006450e1002400320085
:100e70006420e100270032006150e10022003200ce
:100e80006120e100210032008b854200eb07b100b8
:100e90000134b800003ab8000804420089844a00ce
:100ea000013ab8000030b8008880400009014a00cb
:100eb0000400330000004000818048000201490026
:100ec0008b05e900c909dd008301700001003200d3
:100ed00013002000c814de004814dd004709de00be
:100ee0001200b200c808de000884700085ff070009
:100ef00001f0a1000cf0a70001f0a000cdff370029
:100f00006120e100cfff32000801be000200be00f8
:100f1000f7ff37006150e100fcff3a00c9ff3700de
:100f2000889fbe008a9fbe008c9fbe00820578000d
:100f30000004be0099ff07000800be006420e10025
:100f40000700390002003a00f1ff2700f0ff2f00f0
:100f50000160a00012022000b25e88005500370038
:100f60006120e10003003a000b00a70001f8230014
:100f70005000370001f0a10002002100936424001a
:100f80000dff07000800be0004003500b2fd200080
:100f9000930c2400660007000004be000005eb006f
:100fa0000b00a6004f0dde0001f0a1000004be0002
:100fb00032982f0023ea2300a5ff07000001eb0071
:100fc00003f023000b00a70003f8230059fe0700dd
:100fd000fdfe07000000a7000a00a2001bff07009b
:100fe0000b00e000030032000200200003f02300a9
:100ff0004ffe070001f0a2000006be000200200024
:101000009304240092ff07000801be0049fe070078
:10101000809fbe000c00be0022a22a00d3a723009e
:101020008bff07004f01be0042fe07000004be0018
:1010300001f0a1000200200003982300defe07005b
:101040000800be00190035000001be0080ff070047
:101050000006be00b2c52900e36223007cff070042
:1010600022222b00f3942b0032fe07000c01be005d
:1010700077ff0700e273280083c023002dfe0700de
:101080000c01be0072ff070042aa2a00a3e22b0057
:1010900028fe07000c01be006dff07000801be001e
:1010a0006bff07000801be0022fe07000a00a70030
:1010b00001f0a2004f06be004f05be004f04be0067
:1010c00000000600889fbe008a9fbe00841f780033
:1010d00047ff07004f00780011003300f0ff2f009a
:1010e000838f6c0006003b00040565000a00a70022
:1010f0000800370009f0a6001000200008003700a3
:10110000820f5400838f5c00030039001000200020
:1011100001003e000000200009f0a7000000ea00e6
:101120004f05be004f04be000000e00000000600b6
:101130000400200000003700889fbe008a9fbe0088
:101140008c1f78004f26dd0029ff070030ff330099
:101150006120e100430032006250e10041003e00a6
:101160003e0039006420e1003c0032000582550059
:101170000f003b000402e80038003a00800f5300e3
:10118000818f5b00350034000800be0003f0a10031
:1011900001f0a60003f0a0000cf0a700e5fd070099
:1011a00024ff37000603430087834b000c464600ac
:1011b0000005530081855b00020033000a03be0076
:1011c0000c00a0000402e900f6ff3b008505780052
:1011d0000602430087824b0004003a006000b8001a
:1011e00009f0a70001f0a00012ff37000002520032
:1011f00081825a000704e000040033000603430024
:1012000087834b008b05e900faff3700090578005a
:101210000604be000203be006011b800b9fe07005c
:10122000e00f5200e08f5a000700350002003c003a
:101230000c08a300040032000601be0003f0a00069
:101240000cf0a700bbfd07000a85680001f0a100b3
:101250000af0a70001f0a000f6fe37000800be006b
:10126000f4fe3700100220000cf0a600b05e8800eb
:04127000f4fe370051
:020000040000fa
:101274000400fa0000f02f004cfc070000092000d5
:10128400000f780000222c00100798009e007800c0
:101294001e009000a2fc070066fc0700605180005d
:1012a4000000e80060518800a6fc07000000000070
:1012b40030108000e10060000000eb00808f5000df
:1012c400fbff3a0085c0a90060ccb3006efc0700a8
:1012d4000000000040108000e10060000000eb000e
:1012e400808f5000fbff3a000000000021048000c2
:1012f40000002400808060000000eb00808f50001c
:10130400faff320085c0a9000000000041108000ef
:1013140000002800808060000000eb00808f5000f7
:10132400faff3a000040eb0057fc070041fc0700bd
:10133400c0c0b30054fc07003efc07000040eb00b3
:1013440051fc07003bfc070030c0b3004efc070013
:1013540038fc070010c0b3004bfc070035fc070045
:1013640020c0b30048fc070032fc07000040eb003b
:1013740045fc07002ffc0700e0b9200056fc0700dd
:101384002cfc070000c2b3003ffc070029fc070047
:101394006151800010002000808f500003003a004b
:1013a40010c3b30038fc07000400370020c3b300a7
:1013b40035fc07000000eb00605188001dfc0700ad
:1013c40062fc07000000000030108000e4006000b0
:1013d4000000eb00808f5000fbff3a00edfb07009c
:1013e4000080fa00000006000000fa000000eb0094
:1013f400301088000000eb004010880096cbbf003e
:101404000080fb0050108800b0f02f00e7fb0700bd
:1014140011012000002c2c0041fc070005fc0700f2
:101424000080fa00000006000000fa000000eb0053
:10143400000488000000eb0010048800f0ff210085
:10144400900288000000eb00200488000000eb00fc
:10145400300488000000eb00400488000000eb002a
:10146400600488000000eb00700488000000eb00ba
:10147400800488000000eb00a00488000000eb005a
:10148400b00488000000eb00c00488000000eb00fa
:10149400d00488000000eb00e00488000000eb00aa
:1014a400f00488000000eb00000588000000eb0059
:1014b400400588000080eb00001688000080eb00e7
:1014c400301688000080eb00601688000000eb00f6
:1014d400901688000000eb00c01688000000eb00a6
:1014e400f0168800f03f2000201788000000eb0071
:1014f400000688000000eb00100688000000eb00e6
:10150400200688000000eb003006880004c020009c
:10151400f33f2f0072f62e0081cf200070cf2700fa
:1015240091fb0700a00020003015880090ff2f00d9
:101534007cfb070007fc07000bfc07000ffc0700ff
:1015440013fc070017fc07001bfc07001ffc070027
:1015540023fc070027fc07002bfc07002ffc0700d7
:1015640033fc070037fc07003bfc07003ffc070087
:1015740043fc07000000eb00200688000000eb009d
:101584003006880070772f0042fc070024002000fa
:1015940003f7200002002a008000eb00301f200027
:1015a4006dfc070090ff070000ff2f007efc070082
:1015b4008080eb00f0fc2f00bcfc07000000eb0077
:1015c400d2fc070000ff2f0085fc07008080eb00a1
:1015d40070f82f00b9fc07000000eb00cdfc0700f9
:1015e40000ff2f00a0fc07008080eb0070f82f00a4
:1015f400bbfc07000000eb00cafc0700a0ff2f00a3
:1016040088fc070091d02300d0fa2d00b0fc07001d
:101614000000eb00c1fc0700160aa900162aa90065
:10162400164aa900166aa900168aa90016aaa800d3
:101634001a0aa9001a2aa9001a4aa9001a6aa900b2
:101644001a8aa9001aaaa9001e0aa9001e2aa9001a
:101654001e4aa900f150800070fc2f000080600039
:10166400f0508800f1508000f0f32f0000806000fb
:10167400f05088001f0aa90011518000c0ff2f00fc
:1016840000806000105188001151800030ff2f004d
:10169400008060001051880011518000f0fc2f0080
:1016a400008060001051880011518000f0f32f0079
:1016b400008060001051880011518000f0cf2f008d
:1016c400008060001051880011518000f03f2f000d
:1016d400008060001051880011518000f0ff2c0040
:1016e400008060001051880011518000f0ff230039
:1016f400008060001051880021518000c0ff2f003d
:1017040000806000205188002151800030ff2f00ac
:101714000080600020518800280aa900282aa90016
:10172400284aa900286aa900288aa9000000eb0019
:10173400001488000000eb00101488000000eb0087
:10174400201488000000eb00301488000000eb0037
:10175400401488000000eb00501488000000eb00e7
:10176400601488000000eb00701488000000eb0097
:10177400801488000000eb00901488000000eb0047
:10178400a01488000000eb00b01488000000eb00f7
:10179400c01488000000eb00d01488000000eb00a7
:1017a400e01488000000eb00f01488000080fa00c8
:1017b400000006000200fa00000f78009e00780086
:1017c40010002000808f500002003a00d462a8006c
:1017d40002003700d462a9000000000000000000ed
:1017e4000080fa00000006000200fa00000f7800f2
:1017f4009e00780010002000808f500002003a0004
:10180400d582a80002003700d582a900000000009c
:10181400000000000080fa00000006000200fa0048
:10182400000f78009e00780010002000808f500088
:1018340002003a00d5a2a80002003700d5a2a900f0
:1018440000000000000000000080fa000000060014
:101854000000fa000000eb00d6ff07000000eb00d8
:10186400eeff07000000eb00dfff07000080fa0036
:10187400000006000000fa0010002000cdff070061
:1018840010002000e5ff070010002000d6ff07002d
:101894000080fa00000006000000fa00e082a800c0
:1018a400000000000080fa00000006000000fa00ba
:1018b400e082a900000000000080fa000000060099
:1018c4000000fa00d0508000f00060000000eb003f
:1018d400808f50001f003a00d15080000002200089
:1018e400808060000000eb00808f500019003a00f7
:1018f4004116800000082000808060000000eb009a
:10190400808f500002003a00e8ff07001a8aa800fe
:101914004116800000102000808060000000eb0071
:10192400808f500002003a00e0ff07001a8aa800e6
:101934004116800000202000808060000000eb0041
:10194400808f50001b003a00d8ff07001a8aa800b5
:1019540018003700d0508000f00060000000eb0059
:10196400808f500013003200d1508000000220000c
:10197400808060000000eb00808f50000d003a0072
:10198400a05c80000000e800a05c8800a15c8000ee
:1019940020002000808f500003003c00beff0700a1
:1019a4001a8aa900030037001a8aa8001000200030
:1019b4009aff07000080fa00000006000200fa0007
:1019c4000000eb00000f7800e04b8000680f40003f
:1019d4001e007800cf80de009bfc07000200200080
:1019e400c334240031fc0700d2cc2c00c30c2400e7
:1019f40016fd0700020020000312240013fd070057
:101a040070fc070000007800305c8800305c8000c7
:101a140000407800bbe9b700305c80004880de00fd
:101a2400000f78001e00780000407800bae9b70083
:101a3400315c8000405c8000808f50000a003400dc
:101a4400305c8000405c8800405c8000800078004e
:101a540060022000e31b0700bbc9bf00d4e9b70044
:101a6400bac9bf00d3e9b7000080fa00000006003d
:101a74000200fa000000eb00000f7800f04b800039
:101a8400000f78001e007800cf80de006efc070097
:101a9400e2242600c3092400ecfc07000200200015
:101aa40063412400a1fb070046fc07000000780006
:101ab400f05b8800f05b800000407800bde9b7006f
:101ac400f05b80004880de00000f78001e00780084
:101ad40000407800bce9b700f15b8000105c800036
:101ae400808f50000a003400f05b8000105c880096
:101af400105c80008000780070022000b91b070091
:101b0400bdc9bf00d0e9b700bcc9bf00cfe9b70069
:101b1400d150800000022000808060000000eb00b3
:101b2400808f500008003a00f15b800000322000f2
:101b3400808f5000040034005cff07001aaaa8003c
:101b44001000200028ff0700d15080000002200070
:101b5400808060000000eb00808f5000080032009d
:101b6400f15b800090282000808f500004003c002e
:101b740049ff07001aaaa9000000eb001aff07009a
:101b84000080fa00000006000400fa000000eb00e8
:101b94001007980050022000a11b07003055880050
:101ba400100220009e1b0700405588009002200070
:101bb4009b1b070050558800a0022000981b0700bb
:101bc40060558800b0022000951b070070558800fe
:101bd400f0022000921b070080558800c0022000fc
:101be4008f1b0700c05c8800700220008c1b07005c
:101bf400105c880080022000891b0700205c88009c
:101c040060022000861b0700405c8800d002200090
:101c1400831b0700f0548800e0022000801b0700ab
:101c240090578800000320007d1b0700f0528800b5
:101c3400100320007a1b07000053880020032000b3
:101c4400771b07002053880030032000741b070013
:101c5400105388000000eb00000f780048003700a4
:101c64009e007800728040006d1b070080007800a1
:101c74001e00780000014000c0b2200000004100b6
:101c8400010878001e007800651b070080007800ba
:101c94001e0078000001400040b420000000410014
:101ca400010878001e017800660041005c1b0700f3
:101cb400800078001e0078000001400000aa200087
:101cc40000004100010878009e0078006380400015
:101cd400531b0700800078001e00780000014000bc
:101ce400e0a7200000004100010878001e017800f0
:101cf400780041004a1b0700800078001e0078002d
:101d04000001400040a420000000410001087800c8
:101d14009e00780075804000411b07008000780019
:101d24001e00780000014000e0a3200000004100f4
:101d3400010878001e0178007b004100381b070071
:101d4400800078001e0078000001400080b7200069
:101d54000000410001087800210220001e8040009c
:101d64002f1b0700800078001e007800000140004f
:101d740040a8200000004100010878001e0fe80080
:101d84009e00780020002000808f5000b4ff3400b3
:101d94000000eb00000f780066003700020420000a
:101da4001e0041001e1b0700800078001e00780002
:101db40000014000408c2000000041000108780030
:101dc400810520001e804000151b0700800078005c
:101dd4001e0178007700410000014000408c200083
:101de4000000410001087800010720001e80400027
:101df4000b1b070080007800e20220001e00410057
:101e040000014000408c20000000410001087800df
:101e1400010d20001e804000011b07008000780097
:101e2400520420001e00410000014000408c2000ac
:101e340000004100010878001e0078008000400086
:101e4400408c200000804000900078000080eb006f
:101e5400808f500006003a001e0078008000400089
:101e6400408c2000008040008000eb0001087800d6
:101e74009e0078007780400080004000408c200065
:101e840000804000900078000080eb00808f5000bc
:101e940007003a001e0178007700410080004000ee
:101ea400408c2000008040008000eb000108780096
:101eb400e10220001e80400080004000408c200091
:101ec40000804000900078000080eb00808f50007c
:101ed40007003a00e20220001e004100800040009a
:101ee400408c2000008040008000eb000108780056
:101ef400510420001e80400080004000408c2000df
:101f040000804000900078000080eb00808f50003b
:101f140007003a00520420001e00410080004000e7
:101f2400408c2000008040008000eb000108780015
:101f34001e0fe8009e00780060012000808f500092
:101f440096ff3400315580000080eb00808f5000f4
:101f540002003a000000eb00305588004155800033
:101f64000080eb00808f500002003a000000eb007c
:101f740040558800515580000080eb00808f500050
:101f840002003a00802520005055880061558000e9
:101f94000080eb00808f500002003a0000192000fe
:101fa40060558800715580000080eb00808f5000e0
:101fb40002003a00800c2000705588008155800092
:101fc4000080eb00808f500002003a00a02820001f
:101fd40080558800915780000080eb00808f50006e
:101fe40002003a000032200090578800c15c800053
:101ff4000080eb00808f500003003a0080c1b300e2
:1020040096ebb70003003700c05c80000040780006
:1020140096ebb700115c80000080eb00808f5000cd
:1020240002003a000000eb00105c8800215c800094
:102034000080eb00808f500002003a000000eb00ab
:10204400205c8800415c80000080eb00808f5000a1
:1020540002003a000000eb00405c8800f15480006c
:102064000080eb00808f500004003a0050002000f4
:10207400f054880016aaa80007003700f154800025
:102084000000eb00808f500002003a0016aaa9005d
:102094000100370016aaa800f15280000080eb006e
:1020a400808f500002003a000000eb00f0528800dc
:1020b400015380000080eb00808f500002003a0042
:1020c4000000eb0000538800215380000080eb00e7
:1020d400808f500002003a000000eb00205388007b
:1020e400115380000080eb00808f500002003a0002
:1020f4000000eb00105388000000eb00000f780094
:10210400790037001e00780080004000c0b2200033
:1021140000804000900078000080eb00808f500029
:10212400080032001e00780080004000c0b2200089
:1021340000804000900078000000eb00808f500089
:1021440006003a001e00780080004000c0b2200063
:10215400008040008000eb00010878001e00780039
:102164008000400040b420000080400090007800cf
:10217400703e2000808f5000060034001e0078005e
:102184008000400040b42000008040008000eb004c
:10219400010878001e0078008000400000aa20009a
:1021a40000804000900078000080eb00808f500099
:1021b40006003a001e0078008000400000aa2000bb
:1021c400008040008000eb00010878001e007800c9
:1021d40080004000e0a720000080400090007800cc
:1021e4000080eb00808f500006003a001e0078004b
:1021f40080004000e0a72000008040008000eb0049
:10220400010878001e0078008000400080b720009c
:1022140000804000900078000080eb00808f500028
:1022240006003a001e0078008000400080b72000bd
:10223400008040008000eb00010878001e00780058
:102244008000400040a420000080400090007800fe
:102254000080eb00808f500006003a001e007800da
:102264008000400040a42000008040008000eb007b
:10227400010878001e00780080004000e0a32000e0
:1022840000804000900078000080eb00808f5000b8
:1022940006003a001e00780080004000e0a3200001
:1022a4000080400041062000010878001e007800ec
:1022b4008000400040a8200000804000900078008a
:1022c4000080eb00808f500006003a001e0078006a
:1022d4008000400040a82000008040008000eb0007
:1022e400010878001e0fe8009e00780020002000fe
:1022f400808f500083ff3400205280004880de002d
:10230400100798002052800000407800b5e9b7001b
:102314001e00900000407800b4e9b70030528000fd
:102324004880de001007980030528000004078009a
:10233400b7e9b7001e00900000407800b6e9b70086
:10234400405280004880de00100798004052800010
:1023540000407800b9e9b7001e0090000040780002
:10236400b8e9b70096cbbf000080fb00501088008e
:1023740096cbbf00004040009aebb7009acbbf0059
:102384000040e8009bebb700605980004880de0005
:10239400100798006059800000407800c2e9b70037
:1023a4001e00900000407800c1e9b7007059800019
:1023b4004880de00100798007059800000407800c3
:1023c400c4e9b7001e00900000407800c3e9b700dc
:1023d400805980004880de001007980080598000f2
:1023e40000407800c6e9b7001e0090000040780065
:1023f400c5e9b700205a80004880de001007980025
:10240400205a800000407800c8e9b7001e00900000
:1024140000407800c7e9b700305a80004880de00e9
:1024240010079800305a800000407800cae9b700cd
:102434001e00900000407800c9e9b700405a8000af
:102444004880de0010079800405a80000040780061
:10245400cce9b7001e00900000407800cbe9b7003b
:10246400105c80004880de0010079800105c80003b
:1024740000407800d0e9b7001e00900000407800ca
:10248400cfe9b700205c80004880de001007980088
:10249400205c800000407800d2e9b7001e00900064
:1024a40000407800d1e9b700405c80004880de003d
:1024b40010079800405c800000407800d4e9b70021
:1024c4001e00900000407800d3e9b700305580002a
:1024d40000407800c0e9b7000080fa000000060060
:1024e4001200fa00889fbe008a9fbe00f05280004e
:1024f400cf80de00d4f9070002002500337c2400dd
:102504006af907001007980021079800005380001b
:10251400cf80de00ccf9070002002500337c2400c4
:1025240062f90700300798004107980020538000a3
:10253400cf80de00c4f9070002002000031224004b
:102544005af907005007980061079800105380005b
:10255400cf80de00bcf90700020020000312240033
:1025640052f9070070079800010f98000000eb0073
:10257400000f78004055800051002000810f50006a
:102584001600320071002000810f50001e003a0036
:1025940060598000000f7800815980001e00780087
:1025a400808f500002003d0082598000020f7800a5
:1025b4001e00780020598800715980001e007800a0
:1025c400808f500002003d0072598000020f780095
:1025d4001e007800105988000b00370062598000f3
:1025e400020f7800815980001e007800808f50000f
:1025f40002003d0080598000000f78001e01780021
:1026040022598800000000007e0190008e0990008d
:102614005e009000ee0090000cfa07000004be007b
:1026240002fd2000930c24003e009000ce00900098
:1026340006fa07000005be0030558000cf80de009a
:1026440081f907000001be000a00be00fff907007f
:102654000001be000800be0014f9070030538800d2
:10266400415388003e019000ce0190001e0090006e
:10267400ae0090000df907005e019000ee0190009d
:10268400f2f907007e0190008e099000eff907002f
:102694000004be0030558000cf80de006af90700d8
:1026a40002fd2000930c2400e8f907000001be009d
:1026b4000800be00fdf807005053880061538800ed
:1026c400215980000000eb00808f50000900320087
:1026d40020598000813e200000017800110009008b
:1026e4008200d800cf80de0057f9070070538800bd
:1026f4008153880050558000cf80de0052f90700d6
:1027040002002000a3472400e8f807009055880041
:10271400a155880060558000cf80de004af907008b
:1027240002002000a3472400e0f80700b055880009
:10273400c155880070558000cf80de0042f9070043
:1027440002002000a3472400d8f80700d0558800d1
:10275400e155880080558000cf80de003af90700fb
:1027640002002000a3472400d0f80700f055880099
:102774000156880010c0b300bee9b70080c4b3009e
:10278400bfe9b700205a80000000ea00505a8800d0
:10279400305a80000000ea00605a8800405a8000e5
:1027a4000000ea00705a880090578000cf80de0055
:1027b40025f907000004be0030558000cf80de00fc
:1027c40021f907000001be000800be009ff90700c0
:1027d4000001be000040220041972400b3f8070026
:1027e400f8f8070000007800305888004f05be0054
:1027f4004f04be000080fa00000006000000fa004a
:10280400d5c2a90000000000d5e2a9000080fa00aa
:10281400000006000000fa00215480000000eb00d4
:10282400808f500004003a00d5c2a90000000000c7
:10283400d5e2a800070037002154800010002000d2
:10284400808f500003003a00d5c2a80000000000a9
:10285400d5e2a9000080fa00000006000000fa009a
:10286400215480000000eb00808f500004003a00e7
:10287400d5c2a80000000000d5e2a9000700370077
:102884002154800010002000808f500003003a0083
:10289400d5c2a90000000000d5e2a8000080fa001b
:1028a400000006000000fa00d4e2a90000000000c5
:1028b400d4c2a9000080fa00000006000000fa005b
:1028c400315480000000eb00808f500004003a0077
:1028d400d4e2a90000000000d4c2a8000700370019
:1028e4003154800010002000808f500003003a0013
:1028f400d4e2a80000000000d4c2a9000080fa00bd
:10290400000006000000fa00315480000000eb00d3
:10291400808f500004003a00d4e2a80000000000b8
:10292400d4c2a900070037003154800010002000f1
:10293400808f500003003a00d4e2a9000000000098
:10294400d4c2a8000080fa00000006000000fa00cb
:10295400d482a90000000000d4a2a9000080fa00db
:10296400000006000000fa00415480000000eb0063
:10297400808f500004003a00d482a90000000000b7
:10298400d4a2a800070037004154800010002000a2
:10299400808f500003003a00d482a8000000000099
:1029a400d4a2a9000080fa00000006000000fa008a
:1029b400415480000000eb00808f500004003a0076
:1029c400d482a80000000000d4a2a90007003700a8
:1029d4004154800010002000808f500003003a0012
:1029e400d482a90000000000d4a2a8000080fa004c
:1029f400000006000000fa00e001200001002000b1
:102a0400381807000080fa00000006000200fa00ef
:102a1400000f78000041eb008000eb003000200044
:102a240053f70700f3ff070074ff0700f1ff0700e7
:102a34000041eb009e007800300020004cf70700b6
:102a44000080fa00000006000200fa00000f78007f
:102a54000041eb008000eb003000200044f7070049
:102a6400e4ff07006bff0700e2ff07000041eb00f3
:102a74009e007800300020003df707000080fa0037
:102a8400000006000200fa00000f78000041eb008d
:102a94008000eb003000200035f70700d5ff070069
:102aa4006eff0700d3ff07000041eb009e00780093
:102ab400300020002ef707000080fa000000060016
:102ac4000200fa00000f78000041eb008000eb00e8
:102ad4002000200026f70700c6ff070071ff07004b
:102ae400c4ff07000041eb009e0078002000200096
:102af4001ff707000080fa00000006000200fa0039
:102b0400000f78000041eb008000eb002000200063
:102b140017f70700b7ff070068ff0700b5ff0700b6
:102b24000041eb009e0078002000200010f7070011
:102b34000080fa00000006000200fa00000f78008e
:102b44000041eb008000eb002000200008f70700a4
:102b5400a8ff07006bff0700a6ff07000041eb007a
:102b64009e0078002000200001f707000080fa0092
:102b7400000006000200fa00000f78000041eb009c
:102b84008000eb0010002000f9f6070099ff070011
:102b94006eff070097ff07000041eb009e007800de
:102ba40010002000f2f607000080fa000000060082
:102bb4000200fa00000f78000041eb008000eb00f7
:102bc40010002000eaf607008aff070065ff0700ef
:102bd40088ff07000041eb009e00780010002000f1
:102be400e3f607000080fa00000006000200fa0085
:102bf400000f78000041eb008000eb001000200083
:102c0400dbf607007bff070068ff070079ff07007a
:102c14000041eb009e00780010002000d4f607006d
:102c24000080fa00000006000000fa001151800044
:102c3400f0ff230000806000105188000000eb00ca
:102c44003057880011518000f0f32f00008060009d
:102c5400105188000000eb00805488006000b80028
:102c640010568800215688000000eb007058880038
:102c74000000eb00a05788000000eb0050548800cf
:102c84006000b80070568800815688000000eb0090
:102c9400605788000000eb00405888000000eb00fb
:102ca400b05888000080fa00000006000000fa0016
:102cb40021518000c0ff2f00008060002051880057
:102cc4000000eb004057880011518000f0cf2f0026
:102cd40000806000105188000000eb0090548800d0
:102ce4006000b80030568800415688000000eb00b0
:102cf400805888000000eb00b05788000000eb000b
:102d0400605488006000b80090568800a15688007e
:102d14000000eb00705788000000eb00505888005a
:102d24000000eb00c05888000080fa000000060094
:102d34000000fa002151800030ff2f000080600065
:102d4400205188000000eb0050578800115180008a
:102d5400f03f2f0000806000105188000000eb005d
:102d6400a05488006000b80050568800615688005e
:102d74000000eb00905888000000eb00c05788006a
:102d84000000eb00705488006000b800b056880062
:102d9400c15688000000eb00805788000000eb005b
:102da400605888000000eb00d05888000080fa00ca
:102db400000006000000fa000000eb00705e8800ce
:102dc4000000eb00c05388000000eb00d0538800e3
:102dd4000000eb00e05388000000eb00b0528800d4
:102de4000000eb00c05288000000eb00d0528800c5
:102df4000000eb00e05288000000eb0090538800d4
:102e04000000eb00a05388000000eb00b0538800e2
:102e140085ff0700a5ff0700c5ff07000080fa0033
:102e2400000006000000fa000041eb008000eb0007
:102e3400300020004ef60700eefe07006ffe07008c
:102e44000080fa00000006000000fa000041eb00d8
:102e54008000eb002000200045f60700e5fe070097
:102e640090fe07000080fa00000006000000fa004f
:102e74000041eb008000eb00100020003cf607004e
:102e8400dcfe0700b1fe07000080fa000000060027
:102e94000000fa000041eb008000eb00300020004d
:102ea40033f607000041eb008000eb002000200017
:102eb4002ff607000041eb008000eb00100020001b
:102ec4002bf60700cbfe07004cfe070075fe07003b
:102ed4009efe07000080fa00000006000000fa00d1
:102ee4000041eb008000eb003000200020f60700da
:102ef4000041eb008000eb00200020001cf60700de
:102f04000041eb008000eb001000200018f60700e1
:102f1400b8fe070039fe070062fe07008bfe0700bb
:102f2400b4fe0700a05880000041eb008000780048
:102f3400300020000ef60700a05880000041eb008e
:102f4400800078002000200009f60700a0588000c7
:102f54000041eb00800078001000200004f6070018
:102f64000080fa00000006000200fa00000f78005a
:102f74000041eb008000eb0030002000fcf507006e
:102f84009cfe07001dfe07009afe07001e00780045
:102f94000041eb008000780030002000f4f50700c9
:102fa4000080fa00000006000200fa00000f78001a
:102fb4000041eb008000eb0020002000ecf507004e
:102fc4008cfe070037fe07008afe07001e0078000b
:102fd4000041eb008000780020002000e4f50700a9
:102fe4000080fa00000006000200fa00000f7800da
:102ff4000041eb008000eb0010002000dcf507002e
:103004007cfe070051fe07007afe07001e007800d0
:103014000041eb008000780010002000d4f5070088
:103024000080fa00000006000000fa00daf507004c
:103034003055800041012000810f50000d00320006
:1030440081022000810f500014003a00400020004b
:10305400605c8800a0ff2f00f2f5070021a1270083
:10306400d0f92d001af607000000eb002bf607003c
:103074001400370020002000605c8800a0ff2f00af
:10308400e8f5070041422f00d0f92d0010f60700a3
:103094000000eb0021f607000a00370010002000b2
:1030a400605c8800a0ff2f00def5070091d02300ac
:1030b400d0fa2d0006f607000000eb0017f6070013
:1030c400000000000080fa00000006000000fa0082
:1030d4000000eb00005588000000eb00105588004c
:1030e4000000eb002055880090598000605988004a
:1030f400a059800070598800b05980008059880018
:10310400f0508000e10060000000eb00808f500070
:10311400100032006159800000fa2000808f5000b6
:1031240003003400800220000055880009003700a5
:1031340061598000007d2000808f5000030034001e
:10314400400120000055880002003700a000200044
:1031540000558800f0508000e20060000000eb00a1
:10316400808f5000100032007159800000fa200056
:10317400808f500003003400800220001055880026
:103184000900370071598000007d2000808f5000b5
:10319400030034004001200010558800020037006d
:1031a400a000200010558800f0508000e40060006a
:1031b4000000eb00808f5000100032008159800025
:1031c40000fa2000808f50000300340080022000a9
:1031d400205588000900370081598000007d2000b7
:1031e400808f5000030034004001200020558800e7
:1031f40002003700a0002000205588000000eb00ea
:1032040030558800015580000000eb00808f50008d
:1032140029003400115580000000eb00808f50001d
:1032240025003400215580000000eb00808f500001
:10323400210034007000200040558800a0002000c8
:10324400305588000155800030012000808f5000e7
:103254000a0034001155800030012000808f500096
:10326400060034002155800030012000808f50007a
:1032740002003400400120003055880001558000d0
:1032840080022000808f5000e4003a001155800035
:1032940080022000808f5000d7003a002155800022
:1032a40080022000808f5000d5003a008002200068
:1032b40030558800d9003700015580000000eb002c
:1032c400808f500021003a00115580000000eb006f
:1032d400808f50001d003400215580000000eb0059
:1032e400808f500019003400600020004055880091
:1032f400a0002000305588001155800030012000c6
:10330400808f5000060034002155800030012000d9
:10331400808f5000020034004001200030558800a6
:103324001155800080022000808f5000bb003a00bd
:103334002155800080022000808f5000b2003a00a6
:103344008002200030558800b40037000155800009
:103354000000eb00808f50002100340011558000e4
:103364000000eb00808f50001d003a0021558000c2
:103374000000eb00808f5000190034005000200042
:1033840040558800a0002000305588000155800079
:1033940030012000808f5000060034002155800049
:1033a40030012000808f50000200340040012000d2
:1033b400305588000155800080022000808f500025
:1033c40096003a002155800080022000808f500032
:1033d4008f003a0080022000305588008f003700ab
:1033e400015580000000eb00808f50002100340064
:1033f400115580000000eb00808f50001d00340048
:10340400215580000000eb00808f500019003a0025
:103414004000200040558800a0002000305588005e
:103424000155800030012000808f500006003400d8
:103434001155800030012000808f500002003400bc
:103444004001200030558800015580008002200092
:10345400808f500071003a001155800080022000d6
:10346400808f50006c003a008002200030558800a4
:103474006a003700015580000000eb00808f500087
:1034840019003a00115580000000eb00808f5000b5
:1034940015003a00215580000000eb00808f500099
:1034a400110034003000200040558800a0002000a6
:1034b400305588002155800030012000808f500055
:1034c400020034004001200030558800215580005e
:1034d40080022000808f500050003a0080022000bb
:1034e400305588004d003700015580000000eb0086
:1034f400808f500019003a00115580000000eb0045
:10350400808f500015003400215580000000eb002e
:10351400808f500011003a002000200040558800a0
:10352400a000200030558800115580003001200093
:10353400808f500002003400400120003055880084
:103544001155800080022000808f500033003a0023
:10355400800220003055880030003700015580007b
:103564000000eb00808f50001900340011558000da
:103574000000eb00808f500015003a0021558000b8
:103584000000eb00808f500011003a001000200072
:1035940040558800a0002000305588000155800067
:1035a40030012000808f50000200340040012000d0
:1035b400305588000155800080022000808f500023
:1035c40016003a00800220003055880013003700ae
:1035d4000000eb00405588000000eb0030558800e7
:1035e400f150800070fc2f00008060008001b30067
:1035f400f050880009003700000000000700370081
:103604000000000005003700000000000300370040
:103614000000000001003700000000003155800068
:1036240080022000808f500007003a00f05980008b
:1036340060598800005a800070598800105a800030
:103644008059880011003700315580004001200066
:10365400808f500007003a00c059800060598800ec
:10366400d059800070598800e05980008059880042
:10367400060037009059800060598800a0598000e6
:1036840070598800b0598000805988000080fa0081
:10369400000006000400fa000000eb00000f7800b0
:1036a4000000eb0010079800f05080004300de009b
:1036b400674060000080fb00cf80de003200200005
:1036c40003002000820f5000838f580044033e0003
:1036d400006001000300370045003700d9003700bf
:1036e400240237002bf30700e9fd07001000200037
:1036f40030f807000000eb00f05a8800a00020001a
:10370400e05a88000000eb00405588000000eb0000
:10371400605988000000eb00705988000000eb003d
:10372400805988000000eb00205a88000000eb005c
:10373400305a88000000eb00405a88001e0aa90095
:103744001e2aa9001e4aa900030037000060fe00db
:103754000000eb0017f80700815180000000eb0027
:10376400808f5000f9ff3a00915180000000eb0077
:10377400808f5000f5ff3a00a15180000000eb005b
:10378400808f5000f1ff3a0003f407000000eb00c3
:10379400605e88000000eb00bafc07000000eb004c
:1037a400e5fc07000000eb0010fd070010002000fe
:1037b40000f8070010002000605c8800a0ff2f00c4
:1037c40018f4070091d02300d0fa2d0040f407002c
:1037d4000000eb0051f40700f150800070fc2f0052
:1037e400008060000030a000f0508800fc02370028
:1037f400f15a800040012000808f50000c003400fa
:103804008151800050002000808f50000800360055
:10381400f0508000e10060000000eb00808f500059
:1038240003003a00f05a8000205a88001e0aa800bb
:10383400f15a800040012000808f50000c003400b9
:103844009151800050002000808f50000800360005
:10385400f0508000e20060000000eb00808f500018
:1038640003003a00f05a8000305a88001e2aa8004b
:10387400f15a800040012000808f50000c00340079
:10388400a151800050002000808f500008003600b5
:10389400f0508000e40060000000eb00808f5000d6
:1038a40003003a00f05a8000405a88001e4aa800db
:1038b400f15a8000e05a800000804000f05a8800ed
:1038c400f15a8000703e2000808f500005003400c3
:1038d400803e2000f05a8800605e80000000e8000e
:1038e400605e8800615e8000a0002000808f500030
:1038f4001c003a006059800090598800705980007b
:10390400a059880080598000b0598800a2f30700ac
:103914000000eb00605988000000eb00705988003b
:103924000000eb00805988000000eb008051880003
:103934000000eb00905188000000eb00a0518800cb
:1039440020002000605c8800a0ff2f00b5f3070072
:1039540041422f00d0f92d00ddf307000000eb00f9
:10396400eef30700615e8000f0002000808f5000bd
:103974001c003a0060598000c059880070598000ca
:10398400d059880080598000e059880082f30700ec
:103994000000eb00605988000000eb0070598800bb
:1039a4000000eb00805988000000eb008051880083
:1039b4000000eb00905188000000eb00a05188004b
:1039c40040002000605c8800a0ff2f0095f30700f2
:1039d40021a12700d0f92d00bdf307000000eb0062
:1039e400cef30700615e800030012000808f50001c
:1039f4007802360060598000f059880070598000c0
:103a0400005a880080598000105a8800803e2000a7
:103a1400f05a8800adfd070083fd07000000eb00ad
:103a2400505b88001f4aa9001f0aa900f1508000ba
:103a340070fc2f00008060000040a000f05088005f
:103a440067023700505b80000000e800505b88008c
:103a5400515b800040002000808f50005f023400e2
:103a6400f0508000e10060000000eb00808f500007
:103a74000a003a00f0508000e20060000000eb0011
:103a8400808f500005003a00f0508000e400600090
:103a94000000eb00808f50002b013200f1508000b9
:103aa40000402000808060000000eb00808f500008
:103ab400ff003a000000200001122400005b88008f
:103ac400115b880060598000cf80de005ef407003f
:103ad40002002000832c2400f4f30700805a88009d
:103ae400915a880070598000cf80de0056f4070098
:103af40002002000832c2400ecf30700a05a880065
:103b0400b15a880080598000cf80de004ef407004f
:103b140002002000832c2400e4f30700c05a88002c
:103b2400d15a88000000eb00000f780058003700dd
:103b34001e007800cf80de0043f407000002be00c0
:103b4400005b8000115b80000001be000400be0029
:103b5400bef407001bf40700800078005204200024
:103b64001e00410000014000408c20000000410084
:103b7400010878001e007800cf80de0032f40700d0
:103b84000002be00805a8000915a80000001be00ed
:103b94000400be00adf407000af4070080007800ba
:103ba4001e00780000014000008420000000410055
:103bb400010878001e007800cf80de0022f40700a0
:103bc4000002be00a05a8000b15a80000001be006d
:103bd4000400be009df40700faf30700800078009b
:103be4001e0178007600410000014000008420009e
:103bf40000004100010878001e007800cf80de003c
:103c040011f407000002be00c05a8000d15a80009f
:103c14000001be000400be008cf40700e9f30700b5
:103c240080007800c20220001e0041000001400014
:103c34000084200000004100010878001e00780084
:103c440080004000408c2000008040008000eb0099
:103c5400010878009e0078007780400080004000d2
:103c6400408c2000008040008000eb0001087800b8
:103c7400e20220001e00410080004000408c200031
:103c8400008040008000eb00010878001e0fe8006f
:103c94009e00780010002000808f5000a4ff3400a4
:103ca4000000200081242400005b8800115b880050
:103cb40060598000cf80de00e3f30700020020009b
:103cc400031a240079f30700805a8800915a880067
:103cd40070598000cf80de00dbf307000200200073
:103ce400031a240071f30700a05a8800b15a88000f
:103cf40080598000cf80de00d3f30700020020004b
:103d0400031a240069f30700c05a8800d15a8800b6
:103d140020002000000f7800580037001e00e90042
:103d2400cf80de00c8f307000002be00005b800005
:103d3400115b80000001be000400be0043f40700d4
:103d4400a0f3070080007800520420001e00410008
:103d540000014000408c2000000041000108780070
:103d64001e00e900cf80de00b7f307000002be00aa
:103d7400805a8000915a80000001be000400be00f9
:103d840032f407008ff30700800078001e007800eb
:103d94000001400000842000000041000108780078
:103da4001e00e900cf80de00a7f307000002be007a
:103db400a05a8000b15a80000001be000400be0079
:103dc40022f407007ff30700800078001e017800ca
:103dd4007600410000014000008420000000410002
:103de400010878001e00e900cf80de0096f307008a
:103df4000002be00c05a8000d15a80000001be00fb
:103e04000400be0011f407006ef307008000780080
:103e1400c20220001e004100000140000084200076
:103e240000004100010878001e0078008000400076
:103e3400408c2000008040008000eb0001087800e6
:103e44009e0078007780400080004000408c200075
:103e5400008040008000eb0001087800e2022000ae
:103e64001e00410080004000408c20000080400083
:103e74008000eb00010878001e0fe8009e00780027
:103e840050012000808f5000a4ff34005001200016
:103e9400205b880050012000305b88005001200026
:103ea400405b88001f0aa8001f4aa8002e003700a4
:103eb400215a8000f05a8000808f500004003c009a
:103ec400215a80000000eb00808f500010003c005d
:103ed400315a8000f05a8000808f500004003c006a
:103ee400315a80000000eb00808f500008003c0035
:103ef400415a8000f05a8000808f500008003c0036
:103f0400415a80000000eb00808f50000400340010
:103f1400f05a80006a005000f05a8800030037000d
:103f2400f05a80000080e900f05a8800f15a8000bd
:103f34000000eb00808f50000a003d000000eb0001
:103f4400f05a880008003700f150800070fc2f0000
:103f5400008060008001b300f05088001f0aa900af
:103f640001003700000000000000eb00505b8800f7
:103f74001b0137000000eb0020468800903e200023
:103f8400804788000000eb0090478800903e2000a6
:103f9400f04888000000eb0000498800903e2000b3
:103fa400604a8800903e2000d04b8800215a80004f
:103fb4000000eb00808f50000e003a000000eb0080
:103fc400000f7800070037001e00780080004000d2
:103fd400408c2000008040008000eb000108780045
:103fe4001e0fe8009e00780060012000808f5000c2
:103ff400f5ff3400315a80000000eb00808f500040
:104004000f003a000000eb00000f780008003700b2
:104014009e0078007780400080004000408c2000a3
:10402400008040008000eb00010878001e0fe800cb
:104034009e00780060012000808f5000f4ff34005f
:10404400415a80000000eb00808f50000f003a00be
:104054000000eb00000f780008003700e2022000a7
:104064001e00410080004000408c20000080400081
:104074008000eb00010878001e0fe8009e00780025
:1040840060012000808f5000f4ff34004055800010
:104094008000780010022000521207003055800082
:1040a40080007800500220004e1207000000eb0050
:1040b400000f78003f0037001e00780080004000a9
:1040c40040b4200000804000100078008000780098
:1040d4001e007800431207001e0078008000400094
:1040e400e0a72000008040001000780080007800e5
:1040f4001e017800630041003a1207001e00780098
:104104008000400000aa20000080400010007800d9
:10411400800078001e01780066004100311207001b
:104124001e0078008000400020b320000080400082
:1041340010007800800078001e01780069004100ba
:10414400281207001e0078008000400080b3200081
:104154000080400010007800800078001e01780084
:104164006c0041001f1207001e0078008000400010
:10417400e0b3200000804000100078008000780048
:104184001e0178006f004100161207001e0078001f
:1041940080004000c0b22000008040001000780081
:1041a400800078001e017800720041000d120700a3
:1041b4001e0fe8009e00780020002000808f500031
:1041c400bdff34000000eb00000f7800450037000d
:1041d4001e00780080004000408c200000804000d9
:1041e4001000780080007800020420001e004100c6
:1041f400fc1107009e00780077804000800040009a
:10420400408c20000080400010007800800078007e
:10421400820520001e004100f2110700e102200087
:104224001e80400080004000408c20000080400040
:104234001000780080007800020720001e00410072
:10424400e81107001e007800800040000084200070
:104254000080400010007800800078008208200070
:104264001e004100df1107009e00780076804000a8
:10427400800040000084200000804000100078008e
:1042840080007800020a20001e004100d5110700ba
:10429400c10220001e8040008000400000842000f5
:1042a400008040001000780080007800820b20001d
:1042b4001e004100cb110700510420001e80400065
:1042c40080004000408c20000080400010007800f6
:1042d40080007800020d20001e004100c11107007b
:1042e4001e0fe8009e00780060012000808f5000bf
:1042f400b7ff3400605980004880de001007980042
:104304006059800000407800c2e9b7001e009000a8
:1043140000407800c1e9b700705980004880de0091
:10432400100798007059800000407800c4e9b70075
:104334001e00900000407800c3e9b7008059800057
:104344004880de0010079800805980000040780003
:10435400c6e9b7001e00900000407800c5e9b70028
:10436400205a80004880de0010079800205a800000
:1043740000407800c8e9b7001e00900000407800b3
:10438400c7e9b700305a80004880de001007980063
:10439400305a800000407800cae9b7001e0090003f
:1043a40000407800c9e9b700405a80004880de0028
:1043b40010079800405a800000407800cce9b7000c
:1043c4001e00900000407800cbe9b7000000fe001a
:1043d4000300370000000000010037000000000067
:1043e400f05a80000041eb0080007800300020008b
:1043f400dff00700f05a80000041eb0080007800f5
:1044040020002000daf00700f05a80000041eb00a1
:104414008000780010002000d5f007000080fa002a
:10442400000006001200fa0070079800010f9800bf
:104434006000b800008fbe006000b800500798000c
:10444400610798000000eb00200798000000eb00d3
:10445400300798000000eb00400798008e08900099
:104464000000eb00808f500005003d000e08900016
:104474000000ea00000f9800100020004007980098
:104484000000eb00300798000e0037003e0090005b
:104494005004b00080004000408c200000804000a8
:1044a400900078000e089000808f500002003c00bd
:1044b4003e009000200798003e0090000000e800b5
:1044c40030079800be00900050012000808f5000fb
:1044d400eeff34002e0090005004b0008000400035
:1044e400408c200000804000100078008e0890006e
:1044f40000805000cf80de00d3f10700008fbe00a3
:104504002e0090000000e8005004b000800040003d
:10451400408c200000804000900078002e00900025
:104524005004b00000014000408c20000000410015
:104534001000780000805000cf80de00c2f1070038
:1045440050079800610798005e019000ee0190000a
:104554001e00be0055f10700008fbe002e00900023
:104564000001e8007e0090007700b90000007800a8
:104574000200400080004000408c20000080400089
:10458400100178007e0090007700b9008000780068
:104594002e0090000080400080004000408c2000ed
:1045a400008040001000780000005100cf80de0041
:1045b400a5f1070050079800610798005e0190007c
:1045c400ee0190001e00be0020f20700008fbe0026
:1045d4007e0090007700b900800078002e009000e3
:1045e4000080400080004000408c2000008040009b
:1045f40010007800cf80de0093f107000001be00b8
:104604001e00be00caf00700008fbe00ce0090005e
:1046140010002000808f500003003a001e00be00ee
:1046240001f0a200008fbe001e00be0065f107006d
:10463400000078000080fa00000006000200fa0082
:10464400000f780011518000f0ff2c008080600082
:104654000000210000807000105188009e00780046
:104664000000eb00808f500007003d001e0fea00a1
:1046740011518000f0ff2c008080600000002200b7
:104684000080700010518800105180004c00de0042
:10469400e3406000105180004e00de0000407800ce
:1046a40080cf50000b003a00d0508000e100600041
:1046b4000000eb00808f500006003a001e007800d6
:1046c4000041eb00800078003000200028f0070053
:1046d4001600370011518000000023008080600024
:1046e40000002100808f500003003a001e00780073
:1046f400e4f80700020037001e007800d2f8070033
:10470400105180004c00de00634060000080fb001c
:104714004e00dd0012518000f1ff23008100610092
:1047240000807000105188001a0aa9000080fa0065
:10473400000006000200fa00000f7800115180000a
:10474400f0ff2c00808060000000210000807000d9
:10475400105188009e0078000000eb00808f50000c
:1047640007003d001e0fea0011518000f0ff2c00ed
:1047740080806000000022000080700010518800da
:10478400105180004c00de00e340600020518000a6
:10479400004078006340600080cf50000b003a0076
:1047a400d0508000e20060000000eb00808f5000d9
:1047b40006003a001e0078000041eb0080007800fb
:1047c40020002000eaef0700160037001151800096
:1047d400000023008080600000002100808f5000d2
:1047e40003003a001e007800d3f8070002003700e7
:1047f4001e007800c1f80700105180004c00de0054
:10480400634060000080fb00630060002251800070
:10481400c1ff2f00810061000080700020518800da
:104824001a2aa9000080fa00000006000200fa001b
:10483400000f780011518000f0ff2c008080600090
:104844000000210000807000105188009e00780054
:104854000000eb00808f500007003d001e0fea00af
:1048640011518000f0ff2c008080600000002200c5
:104874000080700010518800105180004c00de0050
:10488400e3406000205180004200de00634060008d
:1048940080cf50000b003a00d0508000e40060004c
:1048a4000000eb00808f500006003a001e007800e4
:1048b4000041eb008000780010002000acef0700fe
:1048c4001700370011518000000023008080600031
:1048d40000002100808f500003003a001e00780081
:1048e400c2f80700020037001e007800b0f8070085
:1048f400105180004c00de00634060000080fb002b
:10490400630060004200dd002251800031ff2f006f
:104914008100610000807000205188001a4aa900bb
:104924000080fa00000006003000fa00889fbe00f4
:1049340060179800711798006000b800000f980085
:10494400110f980000002000812c2400200f9800f3
:10495400310f98002e089000be08900001f0a200cc
:10496400400f9800510f98006000b800600f980045
:10497400710f98006000b800001798001117980094
:104984006000b80020179800311798006000b80044
:10499400008fbe006000b8004017980051179800bf
:1049a4006000b80020079800310798006000b80044
:1049b40040079800510798000000eb00600798003a
:1049c4000000eb00700798007e109000cf80de009e
:1049d4009df007004017980051179800fe109000b2
:1049e4000000eb00808f50001b003a006e10900016
:1049f4008000400040b42000008040001000780097
:104a0400cf80de0090f007000002be00f055800069
:104a1400015680000001be000400be000bf1070037
:104a24000002be00b0558000c15580000001be00e8
:104a34000400be001df0070020079800310798000d
:104a44002e009000be00900001f0a20040079800e4
:104a54005107980039003700fe1090000000eb0069
:104a6400808f50001b0034004e119000de11900026
:104a740000002000a1472400acef07000002be00a4
:104a8400b0558000c15580000001be000400be0086
:104a940006f0070020079800310798000200200064
:104aa400a34724004e109000de1090009fef0700f3
:104ab4000002be00b0558000c15580000001be0058
:104ac4000400be00f9ef0700400798005107980062
:104ad4001a00370002002000a34724004e10900063
:104ae400de10900092ef07000002be00b055800077
:104af400c15580000001be000400be00ebef0700ba
:104b040020079800310798004e119000de119000a4
:104b140000002000a1472c0084ef07000002be0023
:104b2400b0558000c15580000001be000400be00e5
:104b3400deef070040079800510798006e109000c0
:104b44008000400060b22000008040001000780027
:104b5400cf80de003cf007000001be000000200012
:104b6400a1472400d1ef07000004be006e1090009e
:104b74008000400000a32000008040001000780066
:104b8400010020003ef007000001be000800be0046
:104b9400aef00700008fbe006e1090008000400051
:104ba40060a9200000804000900078006e10900002
:104bb40000014000e0a72000000041001000780040
:104bc400808f5000030032001e00be0001f0a200de
:104bd400008fbe001e01be004e109000de1090003b
:104be40052ef0700000f9800110f980090558000b5
:104bf400a15580000001be000e0890009e089000a0
:104c040092f00700600f9800710f98006e109000ea
:104c140080004000a0ad200000804000900078009b
:104c240010002000808f50000e003a006e1090009b
:104c3400c200dd0020ac2000008140006000b8000c
:104c44000089be006e10900080004000a0ad2000de
:104c5400008040008000eb00010878001000200074
:104c6400700798006e109000c200dd0020ac200098
:104c7400008040001000be000e0990009e099000c4
:104c84002bef07006e119000c211dd0022ac200052
:104c9400028141000089be006e109000c200dd0058
:104ca40020ac2000008040001000be0018c0b300fb
:104cb4002e019000be019000c0ef07008000eb00c1
:104cc400810f500001003c000044eb000040eb0069
:104cd400804f5400070032006e109000c200dd00c7
:104ce40020ac2000008040002e019000be01900006
:104cf4000288be006e109000c200dd0020ac2000cf
:104d0400008040001000be0018c0b3004e019000a7
:104d1400de019000a7ef07008000eb00810f500038
:104d2400010035000044eb000040eb00804f5400cc
:104d3400070032006e109000c200dd0020ac20009d
:104d4400008040004e019000de0190000288be0009
:104d54006e109000c200dd0020ac200000804000f6
:104d64001002be00b0558000c15580000001be0095
:104d74000400be0035f007000017980011179800d2
:104d84006e109000c200dd00e0ac20000080400006
:104d94001000be000001be000e0890009e089000a6
:104da400e2ee07000002be00d0558000e15580000d
:104db4000001be000400be0024f007002017980084
:104dc400311798006e109000c200dd00e0ac2000a6
:104dd400008040000e0990009e0990000288be00e9
:104de4006e099000fe0990004e109000de109000b5
:104df400cfee07000e1190009e119000ccee07003c
:104e04002e119000be119000c9ee07006def07004f
:104e140060079800ee009000803e2000808f5000d4
:104e240002003400803e200060079800ee009000ed
:104e340080c12f00808f500002003d0080c12f00f0
:104e4400600798006e1090008000400000a32000ce
:104e540000804000900078000000eb00808f50003c
:104e64002b003a0018c0b3006011b8004e10900037
:104e7400de10900051ef07008000eb00810f50001e
:104e840001003c000044eb000040eb00804f540064
:104e94001f003200fe00900010002000808f5000a0
:104ea4001b003a006e1090008000400040b42000c7
:104eb4000080400010007800cf80de0062ef070021
:104ec4000002be00b0558000c15580000001be0044
:104ed4000400be00f5ee07000002be00f05580009d
:104ee400015680000001be000400be00d7ef070099
:104ef4006e119000c211dd0022ac2000028141003d
:104f04000089be000000eb007007980056003700cf
:104f14006e1090008000400000a32000008040003c
:104f2400900078000000eb00808f50002b003a00c6
:104f340018c0b3006011b8004e109000de1090004d
:104f44001cef07008000eb00810f500001003500ca
:104f54000044eb000040eb00804f54001f0032007f
:104f6400fe00900010002000808f50001b003a00cb
:104f74006e10900080004000a0b42000008040002b
:104f840010007800cf80de002fef07000002be0083
:104f9400b0558000c15580000001be000400be0071
:104fa400c2ee07000002be00f055800001568000ea
:104fb4000001be000400be00a4ef07006e119000c3
:104fc400c211dd0022ac2000028141000089be0034
:104fd4000000eb0070079800230037006e1090006b
:104fe4008000400000a32000008040009000780072
:104ff4000000eb00808f50001b003a006011b800e5
:105004004e109000de109000eaee07008000eb00e6
:10501400810f500014003a006e1090008000400090
:1050240000ae2000008040009000780010002000b6
:10503400808f50000c003a006e109000c200dd001a
:1050440020ac2000008140006000b8000089be0050
:105054006e1090008000400000ae200000804000f0
:105064008000eb000108780018c0b3002e099000fe
:10507400be0990000e0890009e089000cfee070035
:105084008000eb00810f500001003c000044eb0065
:105094000040eb00804f54000d003a0018c0b300ec
:1050a4004e099000de0990000e0890009e089000c2
:1050b400c0ee07008000eb00810f500001003500b6
:1050c4000044eb000040eb00804f54000a00320023
:1050d400ee0090006e109000d2fc07008000780073
:1050e4006e1090000001400060b1200000004100fb
:1050f40001087800060037006e1090008000400020
:1051040060b1200000804000ee01900003087800a8
:105114004f04be000080fa00000006000000fa0000
:10512400415880000000eb00808f50000c003200da
:1051340040588000cf80de00c3ee0700f251280003
:10514400b3f6230041ef070002002000032a2400e5
:10515400f7ed07009bee0700000078004058880038
:10516400515880000000eb00808f50000c0032008a
:1051740050588000cf80de00b3ee070032332300a6
:1051840033f7230031ef07000200200083242400ba
:10519400e7ed07008bee0700000078005058880008
:1051a400615880000000eb00808f50000c0032003a
:1051b40060588000cf80de00a3ee07003233230066
:1051c40033f7230021ef070002002000832424008a
:1051d400d7ed07007bee07000000780060588800d8
:1051e4000080fa00000006000600fa000000eb0050
:1051f400000f78006000b80010079800210798009d
:1052040011518000c0ff2f00008060000000a0004a
:1052140010518800415880000000eb00808f50003e
:1052240008003d0011518000c0ff2f000080600085
:105234000010a00010518800405880000000ea00cf
:10524400405888001151800030ff2f00008060001a
:105254000020a00010518800515880000000eb008d
:10526400808f500008003d001151800030ff2f0056
:10527400008060000030a000105188005058800069
:105284000000ea005058880011518000f0fc2f0003
:10529400008060000040a000105188006158800028
:1052a4000000eb00808f500009003d001151800088
:1052b400f0fc2f008080600000022000008070005d
:1052c40010518800605880000000ea00605888008f
:1052d4000000eb00d05688000000eb00e056880088
:1052e4000000eb00f0568800105180000040780068
:1052f400e3406000105180004600de00634060001f
:1053040080cf50000d003200105180000040780022
:10531400634060000080fb00630060004600dd0025
:1053240012518000f1f32f008100610000807000b1
:105334001051880010002000d056880010518000c1
:105344004200de00e3406000105180004800de00af
:105354006340600080cf50000d0032001051800087
:105364004200de00634060000080fb0063006000d8
:105374004800dd0012518000f1cf2f008100610050
:10538400008070001051880010002000e056880052
:10539400105180004400de00e340600010518000a2
:1053a4004a00de006340600080cf50000d003200f0
:1053b400105180004400de00634060000080fb0068
:1053c400630060004a00dd0012518000f13f2f00ad
:1053d40081006100008070001051880010002000de
:1053e400f056880041588000803e2000808f500095
:1053f40008003c0051588000803e2000808f5000ff
:1054040004003c0061588000803e2000808f5000e2
:105414003200340040588000000f7800515880005a
:105424001e007800808f5000020034005058800025
:10543400000f7800615880001e007800808f5000b3
:105444000200340060588000000f78001e007800cd
:10545400cf80de00fced07000001be00000020004c
:10546400a147240091ed0700100798002107980038
:1054740040588000cf80de00f3ed07001e0190004d
:10548400ae01900071ee0700ceed07000000780039
:105494004058880050588000cf80de00eaed0700b5
:1054a4001e019000ae01900068ee0700c5ed0700f4
:1054b400000078005058880060588000cf80de00db
:1054c400e1ed07001e019000ae0190005fee0700c1
:1054d400bced07000000780060588800105180007f
:1054e400e300600020002000808f500003003a0099
:1054f400405880000000ea004058880010518000a5
:10550400ec00600080002000808f500003003a000f
:10551400505880000000ea00505888001151800063
:10552400000320008080600000022000808f500073
:1055340003003a00605880000000ea0060588800c8
:105544000080fa00000006000600fa000000eb00ec
:10555400000f78006000b800100798002107980039
:1055640011518000c0ff2f00008060000000a000e7
:1055740010518800415880000000eb00808f5000db
:1055840008003d0011518000c0ff2f000080600022
:105594000010a00010518800405880000000ea006c
:1055a4004058880011518000f0fc2f0000806000fa
:1055b4000040a00010518800615880000000eb00fa
:1055c400808f500009003d0011518000f0fc2f0035
:1055d400808060000002200000807000105188006c
:1055e400605880000000ea00605888000000eb006a
:1055f400d05688000000eb00f0568800105180005f
:1056040000407800e3406000105180004600de0056
:105614006340600080cf50000d00320010518000c4
:1056240000407800634060000080fb00630060007d
:105634004600dd0012518000f1f32f00810061006b
:10564400008070001051880010002000d05688009f
:10565400105180004400de00e340600010518000df
:105664004a00de006340600080cf50000d0032002d
:10567400105180004400de00634060000080fb00a5
:10568400630060004a00dd0012518000f13f2f00ea
:10569400810061000080700010518800100020001b
:1056a400f056880041588000803e2000808f5000d2
:1056b40004003c0061588000803e2000808f500030
:1056c4002300340040588000000f780061588000a7
:1056d4001e007800808f5000020034006058800063
:1056e400000f78001e007800cf80de0056ed070022
:1056f4000001be0000002000a1472400ebec0700dd
:10570400100798002107980040588000cf80de00e1
:105714004ded07001e019000ae019000cbed070097
:1057240028ed070000007800405888006058800089
:10573400cf80de0044ed07001e019000ae01900012
:10574400c2ed07001fed07000000780060588800d4
:1057540010518000e300600020002000808f500082
:1057640003003a00405880000000ea0040588800d6
:10577400115180000003200080806000000220009e
:10578400808f500003003a00605880000000ea0057
:10579400605888000080fa00000006000000fa004b
:1057a400889fbe0091538000c0538000808f5000ba
:1057b40008003a00a1538000d0538000808f50002d
:1057c40004003a00b1538000e0538000808f500001
:1057d4009300320090538000c0538800a05380008f
:1057e400d0538800b0538000e0538800b053800049
:1057f400400bb000b053880090538000cf80de008f
:1058040011ed070002002000a34724008fed0700dc
:1058140002002000832c2400a4ec0700b23d2b00de
:10582400d3f52300a1ec0700e6ec070000007800a4
:1058340090538800a0538000cf80de0002ed070063
:1058440002002000a347240080ed0700020020008e
:10585400832c240095ec0700daec070000007800a4
:10586400a053880090538000cf80de00f6ec070040
:105874000004be00b0538000cf80de00f2ec0700cd
:10588400020020006331240028ec070002fd200000
:10589400930424006ded070002002000433324002c
:1058a40082ec07007fec07000001be000800be0088
:1058b40066ed0700c3ec070000007800405888003c
:1058c40090538000cf80de00dfec07000004be00b0
:1058d400b0538000cf80de00dbec07000200200024
:1058e400432b240012ec070002fd20009304240043
:1058f40056ed070002002000433324006bec070040
:1059040068ec07000001be000800be004fed070070
:10591400acec0700000078005058880090538000d9
:10592400cf80de00c8ec07000004be00b053800046
:10593400cf80de00c4ec070002002000031f240017
:10594400faeb070002fd2000930424003fed07005a
:10595400020020004333240054ec070051ec0700fc
:105964000001be000800be0038ed070095ec0700fa
:10597400000078006058880041588000a0538000df
:10598400008040004058880051588000a053800097
:10599400008040005058880061588000a053800067
:1059a40000804000605888000ffe070040588000c7
:1059b40060578800505880007057880060588000f5
:1059c40080578800815e800020002000808f500076
:1059d4000d003a001000200030578800100020000d
:1059e400405788001000200050578800105980004c
:1059f400305988001059800040598800105980009f
:105a040050598800060037000000eb00305788002a
:105a14000000eb00405788000000eb00505788005e
:105a24004f04be000080fa00000006000600fa00e1
:105a3400200798006000b800008fbe002e00900080
:105a440080004000a0a82000008040009000780062
:105a54002e0090000001400000a920000000410039
:105a640010007800808f50009c0032002e009000bf
:105a740080004000a0a82000008040009000780032
:105a84002e0090000001400000a920000000410009
:105a9400010878002e00900080004000a0a820009b
:105aa400008040009000780040062000808f500065
:105ab400060034002e00900080004000a0a82000c2
